{
  "_format": "hh-sol-artifact-1",
  "contractName": "IPFSHashStorage",
  "sourceName": "contracts/IPFSHashStorage.sol",
  "abi": [
    {
      "inputs": [],
      "stateMutability": "nonpayable",
      "type": "constructor"
    },
    {
      "anonymous": false,
      "inputs": [
        {
          "indexed": true,
          "internalType": "address",
          "name": "user",
          "type": "address"
        },
        {
          "indexed": false,
          "internalType": "string",
          "name": "ipfsHash",
          "type": "string"
        },
        {
          "indexed": false,
          "internalType": "string",
          "name": "fileName",
          "type": "string"
        }
      ],
      "name": "HashAdded",
      "type": "event"
    },
    {
      "anonymous": false,
      "inputs": [
        {
          "indexed": true,
          "internalType": "address",
          "name": "user",
          "type": "address"
        }
      ],
      "name": "UserRegistered",
      "type": "event"
    },
    {
      "anonymous": false,
      "inputs": [
        {
          "indexed": true,
          "internalType": "address",
          "name": "user",
          "type": "address"
        }
      ],
      "name": "UserUnregistered",
      "type": "event"
    },
    {
      "inputs": [
        {
          "internalType": "string",
          "name": "ipfsHash",
          "type": "string"
        },
        {
          "internalType": "string",
          "name": "fileName",
          "type": "string"
        }
      ],
      "name": "addIPFSHash",
      "outputs": [],
      "stateMutability": "nonpayable",
      "type": "function"
    },
    {
      "inputs": [
        {
          "internalType": "address",
          "name": "user",
          "type": "address"
        }
      ],
      "name": "getUserFileCount",
      "outputs": [
        {
          "internalType": "uint256",
          "name": "",
          "type": "uint256"
        }
      ],
      "stateMutability": "view",
      "type": "function"
    },
    {
      "inputs": [
        {
          "internalType": "address",
          "name": "user",
          "type": "address"
        }
      ],
      "name": "getUserFiles",
      "outputs": [
        {
          "components": [
            {
              "internalType": "string",
              "name": "ipfsHash",
              "type": "string"
            },
            {
              "internalType": "string",
              "name": "fileName",
              "type": "string"
            },
            {
              "internalType": "uint256",
              "name": "timestamp",
              "type": "uint256"
            },
            {
              "internalType": "bool",
              "name": "exists",
              "type": "bool"
            }
          ],
          "internalType": "struct IPFSHashStorage.FileInfo[]",
          "name": "",
          "type": "tuple[]"
        }
      ],
      "stateMutability": "view",
      "type": "function"
    },
    {
      "inputs": [
        {
          "internalType": "address",
          "name": "user",
          "type": "address"
        }
      ],
      "name": "isUserRegistered",
      "outputs": [
        {
          "internalType": "bool",
          "name": "",
          "type": "bool"
        }
      ],
      "stateMutability": "view",
      "type": "function"
    },
    {
      "inputs": [],
      "name": "owner",
      "outputs": [
        {
          "internalType": "address",
          "name": "",
          "type": "address"
        }
      ],
      "stateMutability": "view",
      "type": "function"
    },
    {
      "inputs": [
        {
          "internalType": "address",
          "name": "user",
          "type": "address"
        }
      ],
      "name": "registerUser",
      "outputs": [],
      "stateMutability": "nonpayable",
      "type": "function"
    },
    {
      "inputs": [
        {
          "internalType": "address",
          "name": "",
          "type": "address"
        }
      ],
      "name": "registeredUsers",
      "outputs": [
        {
          "internalType": "bool",
          "name": "",
          "type": "bool"
        }
      ],
      "stateMutability": "view",
      "type": "function"
    },
    {
      "inputs": [
        {
          "internalType": "address",
          "name": "user",
          "type": "address"
        }
      ],
      "name": "unregisterUser",
      "outputs": [],
      "stateMutability": "nonpayable",
      "type": "function"
    }
  ],
  "bytecode": "0x608060405234801561001057600080fd5b50600080546001600160a01b03191633908117825580825260026020526040808320805460ff191660011790555190917f54db7a5cb4735e1aac1f53db512d3390390bb6637bd30ad4bf9fc98667d9b9b991a2610b53806100726000396000f3fe608060405234801561001057600080fd5b50600436106100885760003560e01c806321f2ca3b1161005b57806321f2ca3b146101265780638da5cb5b14610139578063954bad7414610164578063e4e10b361461017757600080fd5b80630e50cee51461008d578063163f7522146100c55780631fc37922146100f15780632199d5cd14610111575b600080fd5b6100b061009b36600461074b565b60026020526000908152604090205460ff1681565b60405190151581526020015b60405180910390f35b6100b06100d336600461074b565b6001600160a01b031660009081526002602052604090205460ff1690565b6101046100ff36600461074b565b6101ae565b6040516100bc91906107c1565b61012461011f36600461074b565b6103c6565b005b61012461013436600461074b565b6104a5565b60005461014c906001600160a01b031681565b6040516001600160a01b0390911681526020016100bc565b610124610172366004610901565b6105d7565b6101a061018536600461074b565b6001600160a01b031660009081526001602052604090205490565b6040519081526020016100bc565b6060336001600160a01b03831614806101d157506000546001600160a01b031633145b6102135760405162461bcd60e51b815260206004820152600e60248201526d139bdd08185d5d1a1bdc9a5e995960921b60448201526064015b60405180910390fd5b6001600160a01b038216600090815260016020908152604080832080548251818502810185019093528083529193909284015b828210156103bb578382906000526020600020906004020160405180608001604052908160008201805461027990610965565b80601f01602080910402602001604051908101604052809291908181526020018280546102a590610965565b80156102f25780601f106102c7576101008083540402835291602001916102f2565b820191906000526020600020905b8154815290600101906020018083116102d557829003601f168201915b5050505050815260200160018201805461030b90610965565b80601f016020809104026020016040519081016040528092919081815260200182805461033790610965565b80156103845780601f1061035957610100808354040283529160200191610384565b820191906000526020600020905b81548152906001019060200180831161036757829003601f168201915b5050509183525050600282015460208083019190915260039092015460ff1615156040909101529082526001929092019101610246565b505050509050919050565b6000546001600160a01b031633146103f05760405162461bcd60e51b815260040161020a9061099f565b6001600160a01b03811660009081526002602052604090205460ff16156104595760405162461bcd60e51b815260206004820152601a60248201527f5573657220697320616c72656164792072656769737465726564000000000000604482015260640161020a565b6001600160a01b038116600081815260026020526040808220805460ff19166001179055517f54db7a5cb4735e1aac1f53db512d3390390bb6637bd30ad4bf9fc98667d9b9b99190a250565b6000546001600160a01b031633146104cf5760405162461bcd60e51b815260040161020a9061099f565b6000546001600160a01b039081169082160361052d5760405162461bcd60e51b815260206004820152601760248201527f43616e6e6f7420756e7265676973746572206f776e6572000000000000000000604482015260640161020a565b6001600160a01b03811660009081526002602052604090205460ff1661058e5760405162461bcd60e51b8152602060048201526016602482015275155cd95c881a5cc81b9bdd081c9959da5cdd195c995960521b604482015260640161020a565b6001600160a01b038116600081815260026020526040808220805460ff19169055517f69c4cef1aa574ae7852ac8b784ab60926951c604b70049150e4091759ea980769190a250565b3360009081526002602052604090205460ff1661062f5760405162461bcd60e51b8152602060048201526016602482015275155cd95c881a5cc81b9bdd081c9959da5cdd195c995960521b604482015260640161020a565b60008251116106805760405162461bcd60e51b815260206004820152601960248201527f4950465320686173682063616e6e6f7420626520656d70747900000000000000604482015260640161020a565b3360009081526001602081815260408084208151608081018352878152808401879052429281019290925260608201849052805493840181558452922082516004909202019081906106d29082610a2f565b50602082015160018201906106e79082610a2f565b5060408281015160028301556060909201516003909101805460ff19169115159190911790555133907f85526cda9264fd7ca3411a3f48e97cb66956a3cca380c2cc318d75a7f5dad90f9061073f9085908590610aef565b60405180910390a25050565b60006020828403121561075d57600080fd5b81356001600160a01b038116811461077457600080fd5b9392505050565b6000815180845260005b818110156107a157602081850181015186830182015201610785565b506000602082860101526020601f19601f83011685010191505092915050565b60006020808301818452808551808352604092508286019150828160051b87010184880160005b8381101561085057603f1989840301855281516080815181865261080e8287018261077b565b915050888201518582038a870152610826828261077b565b838a0151878b015260609384015115159390960192909252505093860193908601906001016107e8565b509098975050505050505050565b634e487b7160e01b600052604160045260246000fd5b600082601f83011261088557600080fd5b813567ffffffffffffffff808211156108a0576108a061085e565b604051601f8301601f19908116603f011681019082821181831017156108c8576108c861085e565b816040528381528660208588010111156108e157600080fd5b836020870160208301376000602085830101528094505050505092915050565b6000806040838503121561091457600080fd5b823567ffffffffffffffff8082111561092c57600080fd5b61093886838701610874565b9350602085013591508082111561094e57600080fd5b5061095b85828601610874565b9150509250929050565b600181811c9082168061097957607f821691505b60208210810361099957634e487b7160e01b600052602260045260246000fd5b50919050565b60208082526021908201527f4f6e6c79206f776e65722063616e2063616c6c20746869732066756e6374696f6040820152603760f91b606082015260800190565b601f821115610a2a57600081815260208120601f850160051c81016020861015610a075750805b601f850160051c820191505b81811015610a2657828155600101610a13565b5050505b505050565b815167ffffffffffffffff811115610a4957610a4961085e565b610a5d81610a578454610965565b846109e0565b602080601f831160018114610a925760008415610a7a5750858301515b600019600386901b1c1916600185901b178555610a26565b600085815260208120601f198616915b82811015610ac157888601518255948401946001909101908401610aa2565b5085821015610adf5787850151600019600388901b60f8161c191681555b5050505050600190811b01905550565b604081526000610b02604083018561077b565b8281036020840152610b14818561077b565b9594505050505056fea264697066735822122019c75dbd489fbc23de214c82469435f4ef1ecea0863704e75dc3fa2ed5accb2964736f6c63430008130033",
  "linkReferences": {},
  "deployedLinkReferences": {}
}